{
  "_format": "hh-sol-artifact-1",
  "contractName": "Bdrive",
  "sourceName": "contracts/Bdrive.sol",
  "abi": [
    {
      "inputs": [],
      "name": "listFiles",
      "outputs": [
        {
          "internalType": "string[]",
          "name": "",
          "type": "string[]"
        },
        {
          "internalType": "uint256[]",
          "name": "",
          "type": "uint256[]"
        },
        {
          "internalType": "bytes[]",
          "name": "",
          "type": "bytes[]"
        }
      ],
      "stateMutability": "view",
      "type": "function"
    },
    {
      "inputs": [],
      "name": "listSharedFiles",
      "outputs": [
        {
          "internalType": "string[]",
          "name": "",
          "type": "string[]"
        },
        {
          "internalType": "uint256[]",
          "name": "",
          "type": "uint256[]"
        },
        {
          "internalType": "bytes[]",
          "name": "",
          "type": "bytes[]"
        }
      ],
      "stateMutability": "view",
      "type": "function"
    },
    {
      "inputs": [
        {
          "internalType": "uint256",
          "name": "_index",
          "type": "uint256"
        },
        {
          "internalType": "address",
          "name": "_recipient",
          "type": "address"
        }
      ],
      "name": "shareFile",
      "outputs": [],
      "stateMutability": "nonpayable",
      "type": "function"
    },
    {
      "inputs": [
        {
          "internalType": "string",
          "name": "_name",
          "type": "string"
        },
        {
          "internalType": "bytes",
          "name": "_image",
          "type": "bytes"
        }
      ],
      "name": "uploadFile",
      "outputs": [],
      "stateMutability": "nonpayable",
      "type": "function"
    }
  ],
  "bytecode": "0x608060405234801561001057600080fd5b506110e2806100206000396000f3fe608060405234801561001057600080fd5b506004361061004c5760003560e01c80633b108f83146100515780635052b29d14610066578063aaccd05a14610086578063b033d8fa14610099575b600080fd5b61006461005f366004610e23565b6100a1565b005b61006e61023a565b60405161007d93929190610f88565b60405180910390f35b610064610094366004610eac565b6106dc565b61006e610959565b60008251116100f75760405162461bcd60e51b815260206004820152601d60248201527f46696c65206e616d652073686f756c64206e6f7420626520656d70747900000060448201526064015b60405180910390fd5b60008151116101445760405162461bcd60e51b8152602060048201526019602482015278496d6167652073686f756c64206e6f7420626520656d70747960381b60448201526064016100ee565b33600081815260208181526040808320815160e081018352878152808401959095529084018390526060840183905242608085015260a0840183905260c08401859052805460018101825590835291819020835180516006909402909101926101b09284920190610d15565b506020828101516001830180546001600160a01b0319166001600160a01b0392831617905560408401516002840180546060870151929093166001600160a81b031990931692909217600160a01b911515919091021790556080830151600383015560a0830151600483015560c083015180516102339260058501920190610d15565b5050505050565b3360009081526020819052604081205460609182918291805b828110156102ce5733600090815260208190526040902080548290811061028a57634e487b7160e01b600052603260045260246000fd5b906000526020600020906006020160020160149054906101000a900460ff16156102bc57816102b88161106f565b9250505b806102c68161106f565b915050610253565b506000816001600160401b038111156102f757634e487b7160e01b600052604160045260246000fd5b60405190808252806020026020018201604052801561032a57816020015b60608152602001906001900390816103155790505b5090506000826001600160401b0381111561035557634e487b7160e01b600052604160045260246000fd5b60405190808252806020026020018201604052801561037e578160200160208202803683370190505b5090506000836001600160401b038111156103a957634e487b7160e01b600052604160045260246000fd5b6040519080825280602002602001820160405280156103dc57816020015b60608152602001906001900390816103c75790505b5090506000935060005b858110156106cd5733600090815260208190526040902080548290811061041d57634e487b7160e01b600052603260045260246000fd5b906000526020600020906006020160020160149054906101000a900460ff16156106bb5733600090815260208190526040902080548290811061047057634e487b7160e01b600052603260045260246000fd5b9060005260206000209060060201600001805461048c90611034565b80601f01602080910402602001604051908101604052809291908181526020018280546104b890611034565b80156105055780601f106104da57610100808354040283529160200191610505565b820191906000526020600020905b8154815290600101906020018083116104e857829003601f168201915b505050505084868151811061052a57634e487b7160e01b600052603260045260246000fd5b6020026020010181905250600080336001600160a01b03166001600160a01b03168152602001908152602001600020818154811061057857634e487b7160e01b600052603260045260246000fd5b9060005260206000209060060201600401548386815181106105aa57634e487b7160e01b600052603260045260246000fd5b60209081029190910181019190915233600090815290819052604090208054829081106105e757634e487b7160e01b600052603260045260246000fd5b9060005260206000209060060201600501805461060390611034565b80601f016020809104026020016040519081016040528092919081815260200182805461062f90611034565b801561067c5780601f106106515761010080835404028352916020019161067c565b820191906000526020600020905b81548152906001019060200180831161065f57829003601f168201915b50505050508286815181106106a157634e487b7160e01b600052603260045260246000fd5b602002602001018190525084806106b79061106f565b9550505b806106c58161106f565b9150506103e6565b50919790965090945092505050565b33600090815260208190526040902054821061072a5760405162461bcd60e51b815260206004820152600d60248201526c092dcecc2d8d2c840d2dcc8caf609b1b60448201526064016100ee565b33600081815260208190526040902080548490811061075957634e487b7160e01b600052603260045260246000fd5b60009182526020909120600160069092020101546001600160a01b0316146107be5760405162461bcd60e51b8152602060048201526018602482015277596f7520646f206e6f74206f776e20746869732066696c6560401b60448201526064016100ee565b6001600160a01b0381163314156108285760405162461bcd60e51b815260206004820152602860248201527f526563697069656e7420616464726573732073686f756c64206e6f74206265206044820152673cb7bab91037bbb760c11b60648201526084016100ee565b33600090815260208190526040902080548291908490811061085a57634e487b7160e01b600052603260045260246000fd5b906000526020600020906006020160020160006101000a8154816001600160a01b0302191690836001600160a01b031602179055506001600080336001600160a01b03166001600160a01b0316815260200190815260200160002083815481106108d457634e487b7160e01b600052603260045260246000fd5b906000526020600020906006020160020160146101000a81548160ff02191690831515021790555042600080336001600160a01b03166001600160a01b03168152602001908152602001600020838154811061094057634e487b7160e01b600052603260045260246000fd5b9060005260206000209060060201600401819055505050565b3360009081526020819052604081205460609182918291816001600160401b0381111561099657634e487b7160e01b600052604160045260246000fd5b6040519080825280602002602001820160405280156109c957816020015b60608152602001906001900390816109b45790505b5090506000826001600160401b038111156109f457634e487b7160e01b600052604160045260246000fd5b604051908082528060200260200182016040528015610a1d578160200160208202803683370190505b5090506000836001600160401b03811115610a4857634e487b7160e01b600052604160045260246000fd5b604051908082528060200260200182016040528015610a7b57816020015b6060815260200190600190039081610a665790505b50905060005b84811015610d0757336000908152602081905260409020805482908110610ab857634e487b7160e01b600052603260045260246000fd5b90600052602060002090600602016000018054610ad490611034565b80601f0160208091040260200160405190810160405280929190818152602001828054610b0090611034565b8015610b4d5780601f10610b2257610100808354040283529160200191610b4d565b820191906000526020600020905b815481529060010190602001808311610b3057829003601f168201915b5050505050848281518110610b7257634e487b7160e01b600052603260045260246000fd5b6020026020010181905250600080336001600160a01b03166001600160a01b031681526020019081526020016000208181548110610bc057634e487b7160e01b600052603260045260246000fd5b906000526020600020906006020160030154838281518110610bf257634e487b7160e01b600052603260045260246000fd5b6020908102919091018101919091523360009081529081905260409020805482908110610c2f57634e487b7160e01b600052603260045260246000fd5b90600052602060002090600602016005018054610c4b90611034565b80601f0160208091040260200160405190810160405280929190818152602001828054610c7790611034565b8015610cc45780601f10610c9957610100808354040283529160200191610cc4565b820191906000526020600020905b815481529060010190602001808311610ca757829003601f168201915b5050505050828281518110610ce957634e487b7160e01b600052603260045260246000fd5b60200260200101819052508080610cff9061106f565b915050610a81565b509196909550909350915050565b828054610d2190611034565b90600052602060002090601f016020900481019282610d435760008555610d89565b82601f10610d5c57805160ff1916838001178555610d89565b82800160010185558215610d89579182015b82811115610d89578251825591602001919060010190610d6e565b50610d95929150610d99565b5090565b5b80821115610d955760008155600101610d9a565b60006001600160401b0380841115610dc857610dc8611096565b604051601f8501601f19908116603f01168101908282118183101715610df057610df0611096565b81604052809350858152868686011115610e0957600080fd5b858560208301376000602087830101525050509392505050565b60008060408385031215610e35578182fd5b82356001600160401b0380821115610e4b578384fd5b818501915085601f830112610e5e578384fd5b610e6d86833560208501610dae565b93506020850135915080821115610e82578283fd5b508301601f81018513610e93578182fd5b610ea285823560208401610dae565b9150509250929050565b60008060408385031215610ebe578182fd5b8235915060208301356001600160a01b0381168114610edb578182fd5b809150509250929050565b600082825180855260208086019550808260051b840101818601855b84811015610f3057601f19868403018952610f1e838351610f3d565b98840198925090830190600101610f02565b5090979650505050505050565b60008151808452815b81811015610f6257602081850181015186830182015201610f46565b81811115610f735782602083870101525b50601f01601f19169290920160200192915050565b6000606082016060835280865180835260808501915060808160051b86010192506020808901855b83811015610fde57607f19888703018552610fcc868351610f3d565b95509382019390820190600101610fb0565b505085840381870152875180855288820194820193509150845b8281101561101457845184529381019392810192600101610ff8565b50505083810360408501526110298186610ee6565b979650505050505050565b600181811c9082168061104857607f821691505b6020821081141561106957634e487b7160e01b600052602260045260246000fd5b50919050565b600060001982141561108f57634e487b7160e01b81526011600452602481fd5b5060010190565b634e487b7160e01b600052604160045260246000fdfea2646970667358221220b4307a763eff716f270e03c89aa819d8cba07bf9ace627b391a8d99411f0a92d64736f6c63430008040033",
  "linkReferences": {},
  "deployedLinkReferences": {}
}