{
  "_format": "hh-sol-artifact-1",
  "contractName": "Bdrive",
  "sourceName": "contracts/Bdrive.sol",
  "abi": [
    {
      "inputs": [],
      "name": "listFiles",
      "outputs": [
        {
          "internalType": "string[]",
          "name": "",
          "type": "string[]"
        },
        {
          "internalType": "uint256[]",
          "name": "",
          "type": "uint256[]"
        }
      ],
      "stateMutability": "view",
      "type": "function"
    },
    {
      "inputs": [],
      "name": "listSharedFiles",
      "outputs": [
        {
          "internalType": "string[]",
          "name": "",
          "type": "string[]"
        },
        {
          "internalType": "uint256[]",
          "name": "",
          "type": "uint256[]"
        }
      ],
      "stateMutability": "view",
      "type": "function"
    },
    {
      "inputs": [
        {
          "internalType": "uint256",
          "name": "_index",
          "type": "uint256"
        },
        {
          "internalType": "address",
          "name": "_recipient",
          "type": "address"
        }
      ],
      "name": "shareFile",
      "outputs": [],
      "stateMutability": "nonpayable",
      "type": "function"
    },
    {
      "inputs": [
        {
          "internalType": "string",
          "name": "_name",
          "type": "string"
        }
      ],
      "name": "uploadFile",
      "outputs": [],
      "stateMutability": "nonpayable",
      "type": "function"
    }
  ],
  "bytecode": "0x608060405234801561001057600080fd5b50610d02806100206000396000f3fe608060405234801561001057600080fd5b506004361061004c5760003560e01c80635052b29d14610051578063aaccd05a14610070578063b033d8fa14610085578063e37ffc301461008d575b600080fd5b6100596100a0565b604051610067929190610ba8565b60405180910390f35b61008361007e366004610b34565b6103e8565b005b61005961066a565b61008361009b366004610a8b565b6108cc565b33600090815260208190526040812054606091829190805b82811015610133573360009081526020819052604090208054829081106100ef57634e487b7160e01b600052603260045260246000fd5b906000526020600020906005020160020160149054906101000a900460ff1615610121578161011d81610c8f565b9250505b8061012b81610c8f565b9150506100b8565b506000816001600160401b0381111561015c57634e487b7160e01b600052604160045260246000fd5b60405190808252806020026020018201604052801561018f57816020015b606081526020019060019003908161017a5790505b5090506000826001600160401b038111156101ba57634e487b7160e01b600052604160045260246000fd5b6040519080825280602002602001820160405280156101e3578160200160208202803683370190505b5090506000925060005b848110156103dc5733600090815260208190526040902080548290811061022457634e487b7160e01b600052603260045260246000fd5b906000526020600020906005020160020160149054906101000a900460ff16156103ca5733600090815260208190526040902080548290811061027757634e487b7160e01b600052603260045260246000fd5b9060005260206000209060050201600001805461029390610c54565b80601f01602080910402602001604051908101604052809291908181526020018280546102bf90610c54565b801561030c5780601f106102e15761010080835404028352916020019161030c565b820191906000526020600020905b8154815290600101906020018083116102ef57829003601f168201915b505050505083858151811061033157634e487b7160e01b600052603260045260246000fd5b6020026020010181905250600080336001600160a01b03166001600160a01b03168152602001908152602001600020818154811061037f57634e487b7160e01b600052603260045260246000fd5b9060005260206000209060050201600401548285815181106103b157634e487b7160e01b600052603260045260246000fd5b6020908102919091010152836103c681610c8f565b9450505b806103d481610c8f565b9150506101ed565b50909590945092505050565b33600090815260208190526040902054821061043b5760405162461bcd60e51b815260206004820152600d60248201526c092dcecc2d8d2c840d2dcc8caf609b1b60448201526064015b60405180910390fd5b33600081815260208190526040902080548490811061046a57634e487b7160e01b600052603260045260246000fd5b60009182526020909120600160059092020101546001600160a01b0316146104cf5760405162461bcd60e51b8152602060048201526018602482015277596f7520646f206e6f74206f776e20746869732066696c6560401b6044820152606401610432565b6001600160a01b0381163314156105395760405162461bcd60e51b815260206004820152602860248201527f526563697069656e7420616464726573732073686f756c64206e6f74206265206044820152673cb7bab91037bbb760c11b6064820152608401610432565b33600090815260208190526040902080548291908490811061056b57634e487b7160e01b600052603260045260246000fd5b906000526020600020906005020160020160006101000a8154816001600160a01b0302191690836001600160a01b031602179055506001600080336001600160a01b03166001600160a01b0316815260200190815260200160002083815481106105e557634e487b7160e01b600052603260045260246000fd5b906000526020600020906005020160020160146101000a81548160ff02191690831515021790555042600080336001600160a01b03166001600160a01b03168152602001908152602001600020838154811061065157634e487b7160e01b600052603260045260246000fd5b9060005260206000209060050201600401819055505050565b33600090815260208190526040812054606091829190816001600160401b038111156106a657634e487b7160e01b600052604160045260246000fd5b6040519080825280602002602001820160405280156106d957816020015b60608152602001906001900390816106c45790505b5090506000826001600160401b0381111561070457634e487b7160e01b600052604160045260246000fd5b60405190808252806020026020018201604052801561072d578160200160208202803683370190505b50905060005b838110156108c15733600090815260208190526040902080548290811061076a57634e487b7160e01b600052603260045260246000fd5b9060005260206000209060050201600001805461078690610c54565b80601f01602080910402602001604051908101604052809291908181526020018280546107b290610c54565b80156107ff5780601f106107d4576101008083540402835291602001916107ff565b820191906000526020600020905b8154815290600101906020018083116107e257829003601f168201915b505050505083828151811061082457634e487b7160e01b600052603260045260246000fd5b6020026020010181905250600080336001600160a01b03166001600160a01b03168152602001908152602001600020818154811061087257634e487b7160e01b600052603260045260246000fd5b9060005260206000209060050201600301548282815181106108a457634e487b7160e01b600052603260045260246000fd5b6020908102919091010152806108b981610c8f565b915050610733565b509094909350915050565b600081511161091d5760405162461bcd60e51b815260206004820152601d60248201527f46696c65206e616d652073686f756c64206e6f7420626520656d7074790000006044820152606401610432565b33600081815260208181526040808320815160c081018352868152808401959095529084018390526060840183905242608085015260a084018390528054600181018255908352918190208351805160059094029091019261098292849201906109f2565b5060208201516001820180546001600160a01b0319166001600160a01b0392831617905560408301516002830180546060860151929093166001600160a81b031990931692909217600160a01b911515919091021790556080820151600382015560a09091015160049091015550565b8280546109fe90610c54565b90600052602060002090601f016020900481019282610a205760008555610a66565b82601f10610a3957805160ff1916838001178555610a66565b82800160010185558215610a66579182015b82811115610a66578251825591602001919060010190610a4b565b50610a72929150610a76565b5090565b5b80821115610a725760008155600101610a77565b600060208284031215610a9c578081fd5b81356001600160401b0380821115610ab2578283fd5b818401915084601f830112610ac5578283fd5b813581811115610ad757610ad7610cb6565b604051601f8201601f19908116603f01168101908382118183101715610aff57610aff610cb6565b81604052828152876020848701011115610b17578586fd5b826020860160208301379182016020019490945295945050505050565b60008060408385031215610b46578081fd5b8235915060208301356001600160a01b0381168114610b63578182fd5b809150509250929050565b6000815180845260208085019450808401835b83811015610b9d57815187529582019590820190600101610b81565b509495945050505050565b6000604082016040835280855180835260608501915060608160051b86010192506020808801855b83811015610c3557878603605f1901855281518051808852885b81811015610c05578281018601518982018701528501610bea565b81811115610c15578986838b0101525b50601f01601f191696909601830195509382019390820190600101610bd0565b505085840381870152505050610c4b8185610b6e565b95945050505050565b600181811c90821680610c6857607f821691505b60208210811415610c8957634e487b7160e01b600052602260045260246000fd5b50919050565b6000600019821415610caf57634e487b7160e01b81526011600452602481fd5b5060010190565b634e487b7160e01b600052604160045260246000fdfea2646970667358221220995a8fb67ddbcaab060de542470ffa4a608ecd84593f4521bbfecb6fef924c9764736f6c63430008040033",
  "linkReferences": {},
  "deployedLinkReferences": {}
}