{
  "_format": "hh-sol-artifact-1",
  "contractName": "Bdrive",
  "sourceName": "contracts/Bdrive.sol",
  "abi": [
    {
      "inputs": [],
      "name": "listFiles",
      "outputs": [
        {
          "internalType": "string[]",
          "name": "",
          "type": "string[]"
        },
        {
          "internalType": "uint256[]",
          "name": "",
          "type": "uint256[]"
        },
        {
          "internalType": "string[]",
          "name": "",
          "type": "string[]"
        }
      ],
      "stateMutability": "view",
      "type": "function"
    },
    {
      "inputs": [],
      "name": "listSharedFiles",
      "outputs": [
        {
          "internalType": "string[]",
          "name": "",
          "type": "string[]"
        },
        {
          "internalType": "uint256[]",
          "name": "",
          "type": "uint256[]"
        },
        {
          "internalType": "string[]",
          "name": "",
          "type": "string[]"
        }
      ],
      "stateMutability": "view",
      "type": "function"
    },
    {
      "inputs": [
        {
          "internalType": "uint256",
          "name": "_index",
          "type": "uint256"
        },
        {
          "internalType": "address",
          "name": "_recipient",
          "type": "address"
        }
      ],
      "name": "shareFile",
      "outputs": [],
      "stateMutability": "nonpayable",
      "type": "function"
    },
    {
      "inputs": [
        {
          "internalType": "string",
          "name": "_name",
          "type": "string"
        },
        {
          "internalType": "string",
          "name": "_image",
          "type": "string"
        }
      ],
      "name": "uploadFile",
      "outputs": [],
      "stateMutability": "nonpayable",
      "type": "function"
    }
  ],
  "bytecode": "0x608060405234801561001057600080fd5b50611074806100206000396000f3fe608060405234801561001057600080fd5b506004361061004c5760003560e01c80635052b29d14610051578063996d50bf14610071578063aaccd05a14610086578063b033d8fa14610099575b600080fd5b6100596100a1565b60405161006893929190610f5d565b60405180910390f35b61008461007f366004610e38565b610543565b005b610084610094366004610e98565b6106e0565b61005961095d565b3360009081526020819052604081205460609182918291805b82811015610135573360009081526020819052604090208054829081106100f157634e487b7160e01b600052603260045260246000fd5b906000526020600020906006020160020160149054906101000a900460ff1615610123578161011f81611001565b9250505b8061012d81611001565b9150506100ba565b506000816001600160401b0381111561015e57634e487b7160e01b600052604160045260246000fd5b60405190808252806020026020018201604052801561019157816020015b606081526020019060019003908161017c5790505b5090506000826001600160401b038111156101bc57634e487b7160e01b600052604160045260246000fd5b6040519080825280602002602001820160405280156101e5578160200160208202803683370190505b5090506000836001600160401b0381111561021057634e487b7160e01b600052604160045260246000fd5b60405190808252806020026020018201604052801561024357816020015b606081526020019060019003908161022e5790505b5090506000935060005b858110156105345733600090815260208190526040902080548290811061028457634e487b7160e01b600052603260045260246000fd5b906000526020600020906006020160020160149054906101000a900460ff1615610522573360009081526020819052604090208054829081106102d757634e487b7160e01b600052603260045260246000fd5b906000526020600020906006020160000180546102f390610fc6565b80601f016020809104026020016040519081016040528092919081815260200182805461031f90610fc6565b801561036c5780601f106103415761010080835404028352916020019161036c565b820191906000526020600020905b81548152906001019060200180831161034f57829003601f168201915b505050505084868151811061039157634e487b7160e01b600052603260045260246000fd5b6020026020010181905250600080336001600160a01b03166001600160a01b0316815260200190815260200160002081815481106103df57634e487b7160e01b600052603260045260246000fd5b90600052602060002090600602016004015483868151811061041157634e487b7160e01b600052603260045260246000fd5b602090810291909101810191909152336000908152908190526040902080548290811061044e57634e487b7160e01b600052603260045260246000fd5b9060005260206000209060060201600501805461046a90610fc6565b80601f016020809104026020016040519081016040528092919081815260200182805461049690610fc6565b80156104e35780601f106104b8576101008083540402835291602001916104e3565b820191906000526020600020905b8154815290600101906020018083116104c657829003601f168201915b505050505082868151811061050857634e487b7160e01b600052603260045260246000fd5b6020026020010181905250848061051e90611001565b9550505b8061052c81611001565b91505061024d565b50919790965090945092505050565b60008251116105995760405162461bcd60e51b815260206004820152601d60248201527f46696c65206e616d652073686f756c64206e6f7420626520656d70747900000060448201526064015b60405180910390fd5b60008151116105ea5760405162461bcd60e51b815260206004820152601e60248201527f46696c6520696d6167652073686f756c64206e6f7420626520656d70747900006044820152606401610590565b33600081815260208181526040808320815160e081018352878152808401959095529084018390526060840183905242608085015260a0840183905260c08401859052805460018101825590835291819020835180516006909402909101926106569284920190610d19565b506020828101516001830180546001600160a01b0319166001600160a01b0392831617905560408401516002840180546060870151929093166001600160a81b031990931692909217600160a01b911515919091021790556080830151600383015560a0830151600483015560c083015180516106d99260058501920190610d19565b5050505050565b33600090815260208190526040902054821061072e5760405162461bcd60e51b815260206004820152600d60248201526c092dcecc2d8d2c840d2dcc8caf609b1b6044820152606401610590565b33600081815260208190526040902080548490811061075d57634e487b7160e01b600052603260045260246000fd5b60009182526020909120600160069092020101546001600160a01b0316146107c25760405162461bcd60e51b8152602060048201526018602482015277596f7520646f206e6f74206f776e20746869732066696c6560401b6044820152606401610590565b6001600160a01b03811633141561082c5760405162461bcd60e51b815260206004820152602860248201527f526563697069656e7420616464726573732073686f756c64206e6f74206265206044820152673cb7bab91037bbb760c11b6064820152608401610590565b33600090815260208190526040902080548291908490811061085e57634e487b7160e01b600052603260045260246000fd5b906000526020600020906006020160020160006101000a8154816001600160a01b0302191690836001600160a01b031602179055506001600080336001600160a01b03166001600160a01b0316815260200190815260200160002083815481106108d857634e487b7160e01b600052603260045260246000fd5b906000526020600020906006020160020160146101000a81548160ff02191690831515021790555042600080336001600160a01b03166001600160a01b03168152602001908152602001600020838154811061094457634e487b7160e01b600052603260045260246000fd5b9060005260206000209060060201600401819055505050565b3360009081526020819052604081205460609182918291816001600160401b0381111561099a57634e487b7160e01b600052604160045260246000fd5b6040519080825280602002602001820160405280156109cd57816020015b60608152602001906001900390816109b85790505b5090506000826001600160401b038111156109f857634e487b7160e01b600052604160045260246000fd5b604051908082528060200260200182016040528015610a21578160200160208202803683370190505b5090506000836001600160401b03811115610a4c57634e487b7160e01b600052604160045260246000fd5b604051908082528060200260200182016040528015610a7f57816020015b6060815260200190600190039081610a6a5790505b50905060005b84811015610d0b57336000908152602081905260409020805482908110610abc57634e487b7160e01b600052603260045260246000fd5b90600052602060002090600602016000018054610ad890610fc6565b80601f0160208091040260200160405190810160405280929190818152602001828054610b0490610fc6565b8015610b515780601f10610b2657610100808354040283529160200191610b51565b820191906000526020600020905b815481529060010190602001808311610b3457829003601f168201915b5050505050848281518110610b7657634e487b7160e01b600052603260045260246000fd5b6020026020010181905250600080336001600160a01b03166001600160a01b031681526020019081526020016000208181548110610bc457634e487b7160e01b600052603260045260246000fd5b906000526020600020906006020160030154838281518110610bf657634e487b7160e01b600052603260045260246000fd5b6020908102919091018101919091523360009081529081905260409020805482908110610c3357634e487b7160e01b600052603260045260246000fd5b90600052602060002090600602016005018054610c4f90610fc6565b80601f0160208091040260200160405190810160405280929190818152602001828054610c7b90610fc6565b8015610cc85780601f10610c9d57610100808354040283529160200191610cc8565b820191906000526020600020905b815481529060010190602001808311610cab57829003601f168201915b5050505050828281518110610ced57634e487b7160e01b600052603260045260246000fd5b60200260200101819052508080610d0390611001565b915050610a85565b509196909550909350915050565b828054610d2590610fc6565b90600052602060002090601f016020900481019282610d475760008555610d8d565b82601f10610d6057805160ff1916838001178555610d8d565b82800160010185558215610d8d579182015b82811115610d8d578251825591602001919060010190610d72565b50610d99929150610d9d565b5090565b5b80821115610d995760008155600101610d9e565b600082601f830112610dc2578081fd5b81356001600160401b0380821115610ddc57610ddc611028565b604051601f8301601f19908116603f01168101908282118183101715610e0457610e04611028565b81604052838152866020858801011115610e1c578485fd5b8360208701602083013792830160200193909352509392505050565b60008060408385031215610e4a578182fd5b82356001600160401b0380821115610e60578384fd5b610e6c86838701610db2565b93506020850135915080821115610e81578283fd5b50610e8e85828601610db2565b9150509250929050565b60008060408385031215610eaa578182fd5b8235915060208301356001600160a01b0381168114610ec7578182fd5b809150509250929050565b600081518084526020808501808196508360051b81019150828601855b85811015610f5057828403895281518051808652885b81811015610f20578281018801518782018901528701610f05565b81811115610f3057898883890101525b5099860199601f01601f1916949094018501935090840190600101610eef565b5091979650505050505050565b606081526000610f706060830186610ed2565b828103602084810191909152855180835286820192820190845b81811015610fa657845183529383019391830191600101610f8a565b50508481036040860152610fba8187610ed2565b98975050505050505050565b600181811c90821680610fda57607f821691505b60208210811415610ffb57634e487b7160e01b600052602260045260246000fd5b50919050565b600060001982141561102157634e487b7160e01b81526011600452602481fd5b5060010190565b634e487b7160e01b600052604160045260246000fdfea264697066735822122072a2f8bdfbb1d55eef6385583817b5d5f6235e394b7c2b3c15c39376e112913564736f6c63430008040033",
  "linkReferences": {},
  "deployedLinkReferences": {}
}